{
  "contractName": "AmazonTokenSale",
  "abi": [
    {
      "inputs": [
        {
          "internalType": "contract IERC20Token",
          "name": "_tokenContract",
          "type": "address"
        },
        {
          "internalType": "uint256",
          "name": "_price",
          "type": "uint256"
        },
        {
          "internalType": "bool",
          "name": "_buysTokens",
          "type": "bool"
        },
        {
          "internalType": "bool",
          "name": "_sellsTokens",
          "type": "bool"
        }
      ],
      "payable": false,
      "stateMutability": "nonpayable",
      "type": "constructor"
    },
    {
      "anonymous": false,
      "inputs": [
        {
          "indexed": false,
          "internalType": "bool",
          "name": "buys",
          "type": "bool"
        },
        {
          "indexed": false,
          "internalType": "bool",
          "name": "sells",
          "type": "bool"
        }
      ],
      "name": "ActivatedEvent",
      "type": "event"
    },
    {
      "anonymous": false,
      "inputs": [
        {
          "indexed": true,
          "internalType": "address",
          "name": "tokenOwner",
          "type": "address"
        },
        {
          "indexed": true,
          "internalType": "address",
          "name": "spender",
          "type": "address"
        },
        {
          "indexed": false,
          "internalType": "uint256",
          "name": "tokens",
          "type": "uint256"
        }
      ],
      "name": "Approval",
      "type": "event"
    },
    {
      "anonymous": false,
      "inputs": [
        {
          "indexed": false,
          "internalType": "uint256",
          "name": "amount",
          "type": "uint256"
        }
      ],
      "name": "MakerDepositedEther",
      "type": "event"
    },
    {
      "anonymous": false,
      "inputs": [
        {
          "indexed": false,
          "internalType": "contract IERC20Token",
          "name": "tokenContract",
          "type": "address"
        },
        {
          "indexed": false,
          "internalType": "uint256",
          "name": "newPrice",
          "type": "uint256"
        }
      ],
      "name": "PriceUpdatedbyOracle",
      "type": "event"
    },
    {
      "anonymous": false,
      "inputs": [
        {
          "indexed": false,
          "internalType": "address",
          "name": "buyer",
          "type": "address"
        },
        {
          "indexed": false,
          "internalType": "uint256",
          "name": "amount",
          "type": "uint256"
        }
      ],
      "name": "Sold",
      "type": "event"
    },
    {
      "anonymous": false,
      "inputs": [
        {
          "indexed": false,
          "internalType": "address",
          "name": "seller",
          "type": "address"
        },
        {
          "indexed": false,
          "internalType": "uint256",
          "name": "amount",
          "type": "uint256"
        }
      ],
      "name": "TokensSoldToContract",
      "type": "event"
    },
    {
      "constant": true,
      "inputs": [],
      "name": "contractTokens",
      "outputs": [
        {
          "internalType": "uint256",
          "name": "",
          "type": "uint256"
        }
      ],
      "payable": false,
      "stateMutability": "view",
      "type": "function"
    },
    {
      "constant": true,
      "inputs": [],
      "name": "price",
      "outputs": [
        {
          "internalType": "uint256",
          "name": "",
          "type": "uint256"
        }
      ],
      "payable": false,
      "stateMutability": "view",
      "type": "function"
    },
    {
      "constant": true,
      "inputs": [],
      "name": "tokenContract",
      "outputs": [
        {
          "internalType": "contract IERC20Token",
          "name": "",
          "type": "address"
        }
      ],
      "payable": false,
      "stateMutability": "view",
      "type": "function"
    },
    {
      "constant": true,
      "inputs": [],
      "name": "tokensSold",
      "outputs": [
        {
          "internalType": "uint256",
          "name": "",
          "type": "uint256"
        }
      ],
      "payable": false,
      "stateMutability": "view",
      "type": "function"
    },
    {
      "constant": false,
      "inputs": [
        {
          "internalType": "bool",
          "name": "_buysTokens",
          "type": "bool"
        },
        {
          "internalType": "bool",
          "name": "_sellsTokens",
          "type": "bool"
        }
      ],
      "name": "activate",
      "outputs": [],
      "payable": false,
      "stateMutability": "nonpayable",
      "type": "function"
    },
    {
      "constant": false,
      "inputs": [
        {
          "internalType": "uint256",
          "name": "numberOfTokens",
          "type": "uint256"
        }
      ],
      "name": "buyTokens",
      "outputs": [],
      "payable": true,
      "stateMutability": "payable",
      "type": "function"
    },
    {
      "constant": false,
      "inputs": [
        {
          "internalType": "uint256",
          "name": "amountOfTokensToSell",
          "type": "uint256"
        }
      ],
      "name": "sellTokens",
      "outputs": [],
      "payable": false,
      "stateMutability": "nonpayable",
      "type": "function"
    },
    {
      "constant": false,
      "inputs": [],
      "name": "endSale",
      "outputs": [],
      "payable": false,
      "stateMutability": "nonpayable",
      "type": "function"
    },
    {
      "constant": false,
      "inputs": [],
      "name": "ownerDepositEther",
      "outputs": [],
      "payable": true,
      "stateMutability": "payable",
      "type": "function"
    },
    {
      "constant": false,
      "inputs": [
        {
          "internalType": "string",
          "name": "_symbol",
          "type": "string"
        }
      ],
      "name": "oracleUpdateStockPrice",
      "outputs": [],
      "payable": false,
      "stateMutability": "nonpayable",
      "type": "function"
    },
    {
      "constant": true,
      "inputs": [],
      "name": "contractWeiBalance",
      "outputs": [
        {
          "internalType": "uint256",
          "name": "",
          "type": "uint256"
        }
      ],
      "payable": false,
      "stateMutability": "view",
      "type": "function"
    },
    {
      "constant": false,
      "inputs": [],
      "name": "updateContractsTokenBalance",
      "outputs": [
        {
          "internalType": "uint256",
          "name": "",
          "type": "uint256"
        }
      ],
      "payable": false,
      "stateMutability": "nonpayable",
      "type": "function"
    }
  ],
  "bytecode": "0x608060405234801561001057600080fd5b506040516113773803806113778339818101604052608081101561003357600080fd5b810190808051906020019092919080519060200190929190805190602001909291908051906020019092919050505033600260006101000a81548173ffffffffffffffffffffffffffffffffffffffff021916908373ffffffffffffffffffffffffffffffffffffffff160217905550836000806101000a81548173ffffffffffffffffffffffffffffffffffffffff021916908373ffffffffffffffffffffffffffffffffffffffff1602179055508260018190555081600260146101000a81548160ff02191690831515021790555080600460006101000a81548160ff0219169083151502179055507ffa4f96c42c616d6fbda491095977a6af7c76ebd387177b72299180502cbeaa99600260149054906101000a900460ff16600460009054906101000a900460ff166040518083151515158152602001821515151581526020019250505060405180910390a1505050506111e1806101966000396000f3fe6080604052600436106100a75760003560e01c80636d8e6f7a116100645780636d8e6f7a146101d95780638210e27b14610204578063a035b1fe146102cc578063a7abc124146102f7578063a8d20de514610340578063ea199ad21461036b576100a7565b80633610724e146100ac578063380d831b146100da578063509ab9e7146100f1578063518ab2a81461011c57806355a373d6146101475780636c11bcd31461019e575b600080fd5b6100d8600480360360208110156100c257600080fd5b8101908080359060200190929190505050610375565b005b3480156100e657600080fd5b506100ef610697565b005b3480156100fd57600080fd5b50610106610922565b6040518082815260200191505060405180910390f35b34801561012857600080fd5b50610131610a09565b6040518082815260200191505060405180910390f35b34801561015357600080fd5b5061015c610a0f565b604051808273ffffffffffffffffffffffffffffffffffffffff1673ffffffffffffffffffffffffffffffffffffffff16815260200191505060405180910390f35b3480156101aa57600080fd5b506101d7600480360360208110156101c157600080fd5b8101908080359060200190929190505050610a34565b005b3480156101e557600080fd5b506101ee610d92565b6040518082815260200191505060405180910390f35b34801561021057600080fd5b506102ca6004803603602081101561022757600080fd5b810190808035906020019064010000000081111561024457600080fd5b82018360208201111561025657600080fd5b8035906020019184600183028401116401000000008311171561027857600080fd5b91908080601f016020809104026020016040519081016040528093929190818152602001838380828437600081840152601f19601f820116905080830192505050505050509192919290505050610d9a565b005b3480156102d857600080fd5b506102e1610fdf565b6040518082815260200191505060405180910390f35b34801561030357600080fd5b5061033e6004803603604081101561031a57600080fd5b81019080803515159060200190929190803515159060200190929190505050610fe5565b005b34801561034c57600080fd5b506103556110dc565b6040518082815260200191505060405180910390f35b6103736110e2565b005b600460009054906101000a900460ff16806103dd5750600260009054906101000a900473ffffffffffffffffffffffffffffffffffffffff1673ffffffffffffffffffffffffffffffffffffffff163373ffffffffffffffffffffffffffffffffffffffff16145b1561064c576103ee81600154611175565b34146103f957600080fd5b806000809054906101000a900473ffffffffffffffffffffffffffffffffffffffff1673ffffffffffffffffffffffffffffffffffffffff166370a08231306040518263ffffffff1660e01b8152600401808273ffffffffffffffffffffffffffffffffffffffff1673ffffffffffffffffffffffffffffffffffffffff168152602001915050602060405180830381600087803b15801561049a57600080fd5b505af11580156104ae573d6000803e3d6000fd5b505050506040513d60208110156104c457600080fd5b810190808051906020019092919050505010156104e057600080fd5b7fae92ab4b6f8f401ead768d3273e6bb937a13e39827d19c6376e8fd4512a05d9a3382604051808373ffffffffffffffffffffffffffffffffffffffff1673ffffffffffffffffffffffffffffffffffffffff1681526020018281526020019250505060405180910390a1806005600082825401925050819055506000809054906101000a900473ffffffffffffffffffffffffffffffffffffffff1673ffffffffffffffffffffffffffffffffffffffff1663a9059cbb33836040518363ffffffff1660e01b8152600401808373ffffffffffffffffffffffffffffffffffffffff1673ffffffffffffffffffffffffffffffffffffffff16815260200182815260200192505050602060405180830381600087803b15801561060357600080fd5b505af1158015610617573d6000803e3d6000fd5b505050506040513d602081101561062d57600080fd5b810190808051906020019092919050505061064757600080fd5b610694565b3373ffffffffffffffffffffffffffffffffffffffff166108fc349081150290604051600060405180830381858888f19350505050158015610692573d6000803e3d6000fd5b505b50565b600260009054906101000a900473ffffffffffffffffffffffffffffffffffffffff1673ffffffffffffffffffffffffffffffffffffffff163373ffffffffffffffffffffffffffffffffffffffff16146106f157600080fd5b6000809054906101000a900473ffffffffffffffffffffffffffffffffffffffff1673ffffffffffffffffffffffffffffffffffffffff1663a9059cbb600260009054906101000a900473ffffffffffffffffffffffffffffffffffffffff166000809054906101000a900473ffffffffffffffffffffffffffffffffffffffff1673ffffffffffffffffffffffffffffffffffffffff166370a08231306040518263ffffffff1660e01b8152600401808273ffffffffffffffffffffffffffffffffffffffff1673ffffffffffffffffffffffffffffffffffffffff168152602001915050602060405180830381600087803b1580156107f157600080fd5b505af1158015610805573d6000803e3d6000fd5b505050506040513d602081101561081b57600080fd5b81019080805190602001909291905050506040518363ffffffff1660e01b8152600401808373ffffffffffffffffffffffffffffffffffffffff1673ffffffffffffffffffffffffffffffffffffffff16815260200182815260200192505050602060405180830381600087803b15801561089557600080fd5b505af11580156108a9573d6000803e3d6000fd5b505050506040513d60208110156108bf57600080fd5b81019080805190602001909291905050506108d957600080fd5b3373ffffffffffffffffffffffffffffffffffffffff166108fc479081150290604051600060405180830381858888f1935050505015801561091f573d6000803e3d6000fd5b50565b60008060009054906101000a900473ffffffffffffffffffffffffffffffffffffffff1673ffffffffffffffffffffffffffffffffffffffff166370a08231306040518263ffffffff1660e01b8152600401808273ffffffffffffffffffffffffffffffffffffffff1673ffffffffffffffffffffffffffffffffffffffff168152602001915050602060405180830381600087803b1580156109c457600080fd5b505af11580156109d8573d6000803e3d6000fd5b505050506040513d60208110156109ee57600080fd5b81019080805190602001909291905050506003819055905090565b60055481565b6000809054906101000a900473ffffffffffffffffffffffffffffffffffffffff1681565b600260149054906101000a900460ff1680610a9c5750600260009054906101000a900473ffffffffffffffffffffffffffffffffffffffff1673ffffffffffffffffffffffffffffffffffffffff163373ffffffffffffffffffffffffffffffffffffffff16145b15610d8f576000809054906101000a900473ffffffffffffffffffffffffffffffffffffffff1673ffffffffffffffffffffffffffffffffffffffff1663095ea7b330836040518363ffffffff1660e01b8152600401808373ffffffffffffffffffffffffffffffffffffffff1673ffffffffffffffffffffffffffffffffffffffff16815260200182815260200192505050602060405180830381600087803b158015610b4957600080fd5b505af1158015610b5d573d6000803e3d6000fd5b505050506040513d6020811015610b7357600080fd5b8101908080519060200190929190505050610b8d57600080fd5b60006001544781610b9a57fe5b04905080821115610baa57600080fd5b6000809054906101000a900473ffffffffffffffffffffffffffffffffffffffff1673ffffffffffffffffffffffffffffffffffffffff166323b872dd3330856040518463ffffffff1660e01b8152600401808473ffffffffffffffffffffffffffffffffffffffff1673ffffffffffffffffffffffffffffffffffffffff1681526020018373ffffffffffffffffffffffffffffffffffffffff1673ffffffffffffffffffffffffffffffffffffffff1681526020018281526020019350505050602060405180830381600087803b158015610c8657600080fd5b505af1158015610c9a573d6000803e3d6000fd5b505050506040513d6020811015610cb057600080fd5b8101908080519060200190929190505050610cca57600080fd5b6000610cd883600154611175565b90503373ffffffffffffffffffffffffffffffffffffffff166108fc829081150290604051600060405180830381858888f19350505050158015610d20573d6000803e3d6000fd5b507ff486c41ffd2cb0d4317b8d180c677f86ea522c561d7004a72aa2d9f7989ac4b53384604051808373ffffffffffffffffffffffffffffffffffffffff1673ffffffffffffffffffffffffffffffffffffffff1681526020018281526020019250505060405180910390a150505b50565b600047905090565b600260009054906101000a900473ffffffffffffffffffffffffffffffffffffffff1673ffffffffffffffffffffffffffffffffffffffff163373ffffffffffffffffffffffffffffffffffffffff1614610df457600080fd5b60008073ffffffffffffffffffffffffffffffffffffffff16633d7403a3836040518263ffffffff1660e01b81526004018080602001828103825283818151815260200191508051906020019080838360005b83811015610e62578082015181840152602081019050610e47565b50505050905090810190601f168015610e8f5780820380516001836020036101000a031916815260200191505b5092505050600060405180830381600087803b158015610eae57600080fd5b505af1158015610ec2573d6000803e3d6000fd5b505050508073ffffffffffffffffffffffffffffffffffffffff1663a035b1fe6040518163ffffffff1660e01b815260040160206040518083038186803b158015610f0c57600080fd5b505afa158015610f20573d6000803e3d6000fd5b505050506040513d6020811015610f3657600080fd5b81019080805190602001909291905050506001819055507f5316a65cfcacf8d01401b979ad64d087eff138e4159a5c5e71fed5bab12dcc3f6000809054906101000a900473ffffffffffffffffffffffffffffffffffffffff16600154604051808373ffffffffffffffffffffffffffffffffffffffff1673ffffffffffffffffffffffffffffffffffffffff1681526020018281526020019250505060405180910390a15050565b60015481565b600260009054906101000a900473ffffffffffffffffffffffffffffffffffffffff1673ffffffffffffffffffffffffffffffffffffffff163373ffffffffffffffffffffffffffffffffffffffff161461103f57600080fd5b81600260146101000a81548160ff02191690831515021790555080600460006101000a81548160ff0219169083151502179055507ffa4f96c42c616d6fbda491095977a6af7c76ebd387177b72299180502cbeaa99600260149054906101000a900460ff16600460009054906101000a900460ff166040518083151515158152602001821515151581526020019250505060405180910390a15050565b60035481565b600260009054906101000a900473ffffffffffffffffffffffffffffffffffffffff1673ffffffffffffffffffffffffffffffffffffffff163373ffffffffffffffffffffffffffffffffffffffff161461113c57600080fd5b7fc745dab9c51cefa79677191ed7af7b0ccbb8360b8b39ed79f257f6895882980f346040518082815260200191505060405180910390a1565b60008083141561118857600090506111a6565b600082840290508284828161119957fe5b04146111a157fe5b809150505b9291505056fea265627a7a72315820c9d90bb3c12651ba74442ba1da6a32e5920b62923b31fbf9dad1fb2dc133e04c64736f6c63430005100032",
  "source": "pragma solidity >= 0.5.0 < 0.6.0;\n\nimport \"./StockQuery.sol\";\n\ninterface IERC20Token {\n    function balanceOf(address owner) external returns (uint256);\n    function transfer(address to, uint256 amount) external returns (bool);\n    function decimals() external returns (uint256);\n    function transferFrom(address owner, address buyer, uint numTokens) external returns (bool);\n    function approve(address delegate, uint numberOfTokens) external returns(bool);\n}\n\ncontract AmazonTokenSale {\n    IERC20Token public tokenContract;  // the token being sold\n    uint256 public price;              // the price, in wei, per token\n    address owner;\n    bool buysTokens;\n    uint256 public contractTokens;\n    bool sellsTokens;\n    uint256 public tokensSold;\n\n    event Sold(address buyer, uint256 amount);\n    event MakerDepositedEther(uint256 amount);\n    event TokensSoldToContract(address seller, uint256 amount);\n    event ActivatedEvent(bool buys, bool sells);\n    event PriceUpdatedbyOracle(IERC20Token tokenContract, uint256 newPrice);\n    event Approval(address indexed tokenOwner, address indexed spender, uint tokens);\n\n    constructor (IERC20Token _tokenContract, uint256 _price, bool _buysTokens, bool _sellsTokens) public {\n        owner = msg.sender;\n        tokenContract = _tokenContract;\n        price = _price;\n        buysTokens = _buysTokens;\n        sellsTokens = _sellsTokens;\n        emit ActivatedEvent(buysTokens, sellsTokens);\n    }\n\n    modifier onlyOwner {\n         require (msg.sender == owner);\n        _;\n    }\n\n    // Guards against integer overflows\n    function safeMultiply(uint256 a, uint256 b) internal pure returns (uint256) {\n        if (a == 0) {\n            return 0;\n        } else {\n            uint256 c = a * b;\n            assert(c / a == b);\n            return c;\n        }\n    }\n\n    /*function grantContractPermission(uint256 amountOfTokens) internal returns (bool){\n        tokenContract.approve(address(this), amountOfTokens);\n        //emit Approval(msg.sender, address(this), amountOfTokens);\n        return true;\n    }*/\n\n    function activate (bool _buysTokens, bool _sellsTokens) public onlyOwner {\n        buysTokens  = _buysTokens;\n        sellsTokens = _sellsTokens;\n        emit ActivatedEvent(buysTokens, sellsTokens);\n    }\n\n    function buyTokens(uint256 numberOfTokens) public payable {\n        if (sellsTokens || msg.sender == owner) {\n            require(msg.value == safeMultiply(numberOfTokens, price));\n            require(tokenContract.balanceOf(address(this)) >= numberOfTokens);\n            emit Sold(msg.sender, numberOfTokens);\n            tokensSold += numberOfTokens;\n            require(tokenContract.transfer(msg.sender, numberOfTokens));\n    }\n        else {\n            msg.sender.transfer(msg.value);\n        }\n    }\n\n    function sellTokens(uint256 amountOfTokensToSell) public {\n        if (buysTokens || msg.sender == owner) {\n            require(tokenContract.approve(address(this), amountOfTokensToSell));\n            // Note that buyPrice has already been validated as > 0\n            uint256 can_buy = address(this).balance /price;\n            // Adjust order for funds available\n            require(amountOfTokensToSell <= can_buy);\n\n            // Extract user tokens\n            require(tokenContract.transferFrom(msg.sender, address(this), amountOfTokensToSell));\n            // Pay user\n            uint256 ethOwed= safeMultiply(amountOfTokensToSell, price);\n            msg.sender.transfer(ethOwed);\n\n            emit TokensSoldToContract(msg.sender, amountOfTokensToSell);\n        }\n    }\n\n\n    function endSale() public {\n        require(msg.sender == owner);\n\n        // Send unsold tokens to the owner.\n        require(tokenContract.transfer(owner, tokenContract.balanceOf(address(this))));\n\n        msg.sender.transfer(address(this).balance);\n    }\n\n    function ownerDepositEther() payable public onlyOwner {\n        emit MakerDepositedEther(msg.value);\n    }\n\n    function oracleUpdateStockPrice(string memory _symbol) public onlyOwner{\n        //price=newPrice;\n        StockPrice priceGetter;\n        priceGetter.update(_symbol);\n        price = priceGetter.price();\n        //price = uint256(priceGetter.stockResult);\n        emit PriceUpdatedbyOracle(tokenContract, price);\n    }\n\n    function contractWeiBalance() external view returns (uint256){\n        return address(this).balance;\n    }\n\n    function updateContractsTokenBalance() external returns (uint256){\n        return contractTokens= tokenContract.balanceOf(address(this));\n    }\n}",
  "sourcePath": "/s/chopin/b/grad/padalia/Subjects/Semester-2/CS-481/Final-Project/original/CS481-Term-Project/contracts/AmazonTokenSale.sol",
  "compiler": {
    "name": "solc",
    "version": "0.5.16+commit.9c3226ce.Emscripten.clang"
  },
  "schemaVersion": "3.1.0",
  "updatedAt": "2020-05-04T02:28:29.477Z",
  "networkType": "ethereum",
  "devdoc": {
    "methods": {}
  },
  "userdoc": {
    "methods": {}
  }
}