{
  "contractName": "StockPrice",
  "abi": [
    {
      "inputs": [
        {
          "internalType": "string",
          "name": "_symbol",
          "type": "string"
        }
      ],
      "payable": false,
      "stateMutability": "nonpayable",
      "type": "constructor"
    },
    {
      "anonymous": false,
      "inputs": [
        {
          "indexed": false,
          "internalType": "string",
          "name": "description",
          "type": "string"
        }
      ],
      "name": "LogNewProvableQuery",
      "type": "event"
    },
    {
      "anonymous": false,
      "inputs": [
        {
          "indexed": false,
          "internalType": "string",
          "name": "stock",
          "type": "string"
        }
      ],
      "name": "LogNewStock",
      "type": "event"
    },
    {
      "constant": true,
      "inputs": [],
      "name": "price",
      "outputs": [
        {
          "internalType": "uint256",
          "name": "",
          "type": "uint256"
        }
      ],
      "payable": false,
      "stateMutability": "view",
      "type": "function"
    },
    {
      "constant": true,
      "inputs": [],
      "name": "stockResult",
      "outputs": [
        {
          "internalType": "string",
          "name": "",
          "type": "string"
        }
      ],
      "payable": false,
      "stateMutability": "view",
      "type": "function"
    },
    {
      "constant": false,
      "inputs": [
        {
          "internalType": "bytes32",
          "name": "_myid",
          "type": "bytes32"
        },
        {
          "internalType": "string",
          "name": "_result",
          "type": "string"
        }
      ],
      "name": "__callback",
      "outputs": [],
      "payable": false,
      "stateMutability": "nonpayable",
      "type": "function"
    },
    {
      "constant": false,
      "inputs": [
        {
          "internalType": "bytes32",
          "name": "_myid",
          "type": "bytes32"
        },
        {
          "internalType": "string",
          "name": "_result",
          "type": "string"
        },
        {
          "internalType": "bytes",
          "name": "_proof",
          "type": "bytes"
        }
      ],
      "name": "__callback",
      "outputs": [],
      "payable": false,
      "stateMutability": "nonpayable",
      "type": "function"
    },
    {
      "constant": false,
      "inputs": [
        {
          "internalType": "string",
          "name": "_symbol",
          "type": "string"
        }
      ],
      "name": "update",
      "outputs": [],
      "payable": true,
      "stateMutability": "payable",
      "type": "function"
    }
  ],
  "bytecode": "0x60806040523480156200001157600080fd5b5060405162002b1238038062002b12833981810160405260208110156200003757600080fd5b81019080805160405193929190846401000000008211156200005857600080fd5b838201915060208201858111156200006f57600080fd5b82518660018202830111640100000000821117156200008d57600080fd5b8083526020830192505050908051906020019080838360005b83811015620000c3578082015181840152602081019050620000a6565b50505050905090810190601f168015620000f15780820380516001836020036101000a031916815260200191505b5060405250505062000109816200011060201b60201c565b506200107f565b7fc4dc360d0a9c0677a3379ae0a3d81e887f761e65fdf3d7e00859d1bcd3c4738960405180806020018281038252603681526020018062002adc6036913960400191505060405180910390a1620001876040518060600160405280603e815260200162002a9e603e9139826200038560201b60201c565b600790805190602001906200019e92919062000fd0565b506200028460078054600181600116156101000203166002900480601f0160208091040260200160405190810160405280929190818152602001828054600181600116156101000203166002900480156200023d5780601f1062000211576101008083540402835291602001916200023d565b820191906000526020600020905b8154815290600101906020018083116200021f57829003601f168201915b50505050506040518060400160405280600f81526020017f292e70726f66696c652e707269636500000000000000000000000000000000008152506200038560201b60201c565b600890805190602001906200029b92919062000fd0565b50620003816040518060400160405280600381526020017f55524c000000000000000000000000000000000000000000000000000000000081525060088054600181600116156101000203166002900480601f016020809104026020016040519081016040528092919081815260200182805460018160011615610100020316600290048015620003705780601f10620003445761010080835404028352916020019162000370565b820191906000526020600020905b8154815290600101906020018083116200035257829003601f168201915b50505050506200045160201b60201c565b5050565b606082826040516020018083805190602001908083835b60208310620003c157805182526020820191506020810190506020830392506200039c565b6001836020036101000a03801982511681845116808217855250505050505090500182805190602001908083835b60208310620004145780518252602082019150602081019050602083039250620003ef565b6001836020036101000a03801982511681845116808217855250505050505090500192505050604051602081830303815290604052905092915050565b60008073ffffffffffffffffffffffffffffffffffffffff16600160009054906101000a900473ffffffffffffffffffffffffffffffffffffffff1673ffffffffffffffffffffffffffffffffffffffff161480620004e257506000620004e0600160009054906101000a900473ffffffffffffffffffffffffffffffffffffffff16620009c160201b60201c565b145b15620004fc57620004fa6000620009cc60201b60201c565b505b600160009054906101000a900473ffffffffffffffffffffffffffffffffffffffff1673ffffffffffffffffffffffffffffffffffffffff166338cc48316040518163ffffffff1660e01b8152600401602060405180830381600087803b1580156200056757600080fd5b505af11580156200057c573d6000803e3d6000fd5b505050506040513d60208110156200059357600080fd5b810190808051906020019092919050505073ffffffffffffffffffffffffffffffffffffffff166000809054906101000a900473ffffffffffffffffffffffffffffffffffffffff1673ffffffffffffffffffffffffffffffffffffffff1614620006e057600160009054906101000a900473ffffffffffffffffffffffffffffffffffffffff1673ffffffffffffffffffffffffffffffffffffffff166338cc48316040518163ffffffff1660e01b8152600401602060405180830381600087803b1580156200066357600080fd5b505af115801562000678573d6000803e3d6000fd5b505050506040513d60208110156200068f57600080fd5b81019080805190602001909291905050506000806101000a81548173ffffffffffffffffffffffffffffffffffffffff021916908373ffffffffffffffffffffffffffffffffffffffff1602179055505b60008060009054906101000a900473ffffffffffffffffffffffffffffffffffffffff1673ffffffffffffffffffffffffffffffffffffffff1663524f3889856040518263ffffffff1660e01b81526004018080602001828103825283818151815260200191508051906020019080838360005b838110156200077157808201518184015260208101905062000754565b50505050905090810190601f1680156200079f5780820380516001836020036101000a031916815260200191505b5092505050602060405180830381600087803b158015620007bf57600080fd5b505af1158015620007d4573d6000803e3d6000fd5b505050506040513d6020811015620007eb57600080fd5b8101908080519060200190929190505050905062030d403a02670de0b6b3a76400000181111562000823576000801b915050620009bb565b6000809054906101000a900473ffffffffffffffffffffffffffffffffffffffff1673ffffffffffffffffffffffffffffffffffffffff1663adf59f9982600087876040518563ffffffff1660e01b8152600401808481526020018060200180602001838103835285818151815260200191508051906020019080838360005b83811015620008c0578082015181840152602081019050620008a3565b50505050905090810190601f168015620008ee5780820380516001836020036101000a031916815260200191505b50838103825284818151815260200191508051906020019080838360005b83811015620009295780820151818401526020810190506200090c565b50505050905090810190601f168015620009575780820380516001836020036101000a031916815260200191505b50955050505050506020604051808303818588803b1580156200097957600080fd5b505af11580156200098e573d6000803e3d6000fd5b50505050506040513d6020811015620009a657600080fd5b81019080805190602001909291905050509150505b92915050565b6000813b9050919050565b6000620009de620009e560201b60201c565b9050919050565b60008062000a0d731d3b2638a7cc9f2cb3d298a3da7a90b67e5506ed620009c160201b60201c565b111562000ab957731d3b2638a7cc9f2cb3d298a3da7a90b67e5506ed600160006101000a81548173ffffffffffffffffffffffffffffffffffffffff021916908373ffffffffffffffffffffffffffffffffffffffff16021790555062000aaf6040518060400160405280600b81526020017f6574685f6d61696e6e657400000000000000000000000000000000000000000081525062000fb460201b60201c565b6001905062000fb1565b600062000ae073c03a2615d5efaf5f49f60b7bb6583eaec212fdf1620009c160201b60201c565b111562000b8c5773c03a2615d5efaf5f49f60b7bb6583eaec212fdf1600160006101000a81548173ffffffffffffffffffffffffffffffffffffffff021916908373ffffffffffffffffffffffffffffffffffffffff16021790555062000b826040518060400160405280600c81526020017f6574685f726f707374656e33000000000000000000000000000000000000000081525062000fb460201b60201c565b6001905062000fb1565b600062000bb373b7a07bcf2ba2f2703b24c0691b5278999c59ac7e620009c160201b60201c565b111562000c5f5773b7a07bcf2ba2f2703b24c0691b5278999c59ac7e600160006101000a81548173ffffffffffffffffffffffffffffffffffffffff021916908373ffffffffffffffffffffffffffffffffffffffff16021790555062000c556040518060400160405280600981526020017f6574685f6b6f76616e000000000000000000000000000000000000000000000081525062000fb460201b60201c565b6001905062000fb1565b600062000c8673146500cfd35b22e4a392fe0adc06de1a1368ed48620009c160201b60201c565b111562000d325773146500cfd35b22e4a392fe0adc06de1a1368ed48600160006101000a81548173ffffffffffffffffffffffffffffffffffffffff021916908373ffffffffffffffffffffffffffffffffffffffff16021790555062000d286040518060400160405280600b81526020017f6574685f72696e6b65627900000000000000000000000000000000000000000081525062000fb460201b60201c565b6001905062000fb1565b600062000d5973a2998efd205fb9d4b4963afb70778d6354ad3a41620009c160201b60201c565b111562000e055773a2998efd205fb9d4b4963afb70778d6354ad3a41600160006101000a81548173ffffffffffffffffffffffffffffffffffffffff021916908373ffffffffffffffffffffffffffffffffffffffff16021790555062000dfb6040518060400160405280600a81526020017f6574685f676f65726c690000000000000000000000000000000000000000000081525062000fb460201b60201c565b6001905062000fb1565b600062000e2c736f485c8bf6fc43ea212e93bbf8ce046c7f1cb475620009c160201b60201c565b111562000e9257736f485c8bf6fc43ea212e93bbf8ce046c7f1cb475600160006101000a81548173ffffffffffffffffffffffffffffffffffffffff021916908373ffffffffffffffffffffffffffffffffffffffff1602179055506001905062000fb1565b600062000eb97320e12a1f859b3feae5fb2a0a32c18f5a65555bbf620009c160201b60201c565b111562000f1f577320e12a1f859b3feae5fb2a0a32c18f5a65555bbf600160006101000a81548173ffffffffffffffffffffffffffffffffffffffff021916908373ffffffffffffffffffffffffffffffffffffffff1602179055506001905062000fb1565b600062000f467351efaf4c8b3c9afbd5ab9f4bbc82784ab6ef8faa620009c160201b60201c565b111562000fac577351efaf4c8b3c9afbd5ab9f4bbc82784ab6ef8faa600160006101000a81548173ffffffffffffffffffffffffffffffffffffffff021916908373ffffffffffffffffffffffffffffffffffffffff1602179055506001905062000fb1565b600090505b90565b806002908051906020019062000fcc92919062000fd0565b5050565b828054600181600116156101000203166002900490600052602060002090601f016020900481019282601f106200101357805160ff191683800117855562001044565b8280016001018555821562001044579182015b828111156200104357825182559160200191906001019062001026565b5b50905062001053919062001057565b5090565b6200107c91905b80821115620010785760008160009055506001016200105e565b5090565b90565b611a0f806200108f6000396000f3fe60806040526004361061004a5760003560e01c806327dc297e1461004f5780632f047ba51461012157806338bbfa50146101b15780633d7403a31461031a578063a035b1fe146103d5575b600080fd5b34801561005b57600080fd5b5061011f6004803603604081101561007257600080fd5b81019080803590602001909291908035906020019064010000000081111561009957600080fd5b8201836020820111156100ab57600080fd5b803590602001918460018302840111640100000000831117156100cd57600080fd5b91908080601f016020809104026020016040519081016040528093929190818152602001838380828437600081840152601f19601f820116905080830192505050505050509192919290505050610400565b005b34801561012d57600080fd5b506101366105cc565b6040518080602001828103825283818151815260200191508051906020019080838360005b8381101561017657808201518184015260208101905061015b565b50505050905090810190601f1680156101a35780820380516001836020036101000a031916815260200191505b509250505060405180910390f35b3480156101bd57600080fd5b50610318600480360360608110156101d457600080fd5b8101908080359060200190929190803590602001906401000000008111156101fb57600080fd5b82018360208201111561020d57600080fd5b8035906020019184600183028401116401000000008311171561022f57600080fd5b91908080601f016020809104026020016040519081016040528093929190818152602001838380828437600081840152601f19601f8201169050808301925050505050505091929192908035906020019064010000000081111561029257600080fd5b8201836020820111156102a457600080fd5b803590602001918460018302840111640100000000831117156102c657600080fd5b91908080601f016020809104026020016040519081016040528093929190818152602001838380828437600081840152601f19601f82011690508083019250505050505050919291929050505061066a565b005b6103d36004803603602081101561033057600080fd5b810190808035906020019064010000000081111561034d57600080fd5b82018360208201111561035f57600080fd5b8035906020019184600183028401116401000000008311171561038157600080fd5b91908080601f016020809104026020016040519081016040528093929190818152602001838380828437600081840152601f19601f82011690508083019250505050505050919291929050505061068d565b005b3480156103e157600080fd5b506103ea6108dc565b6040518082815260200191505060405180910390f35b6104086108e2565b73ffffffffffffffffffffffffffffffffffffffff163373ffffffffffffffffffffffffffffffffffffffff161461043f57600080fd5b80600590805190602001906104559291906118c1565b506104f960058054600181600116156101000203166002900480601f0160208091040260200160405190810160405280929190818152602001828054600181600116156101000203166002900480156104ef5780601f106104c4576101008083540402835291602001916104ef565b820191906000526020600020905b8154815290600101906020018083116104d257829003601f168201915b5050505050610bff565b600681905550633b9aca00600654026006819055507f1b573a74706ff3bd3ebcaa8c4bb24ec5979efae6dbdd4a0befee6bb67f1dab62600560405180806020018281038252838181546001816001161561010002031660029004815260200191508054600181600116156101000203166002900480156105ba5780601f1061058f576101008083540402835291602001916105ba565b820191906000526020600020905b81548152906001019060200180831161059d57829003601f168201915b50509250505060405180910390a15050565b60058054600181600116156101000203166002900480601f0160208091040260200160405190810160405280929190818152602001828054600181600116156101000203166002900480156106625780601f1061063757610100808354040283529160200191610662565b820191906000526020600020905b81548152906001019060200180831161064557829003601f168201915b505050505081565b6000801b600360008060001b815260200190815260200160002081905550505050565b7fc4dc360d0a9c0677a3379ae0a3d81e887f761e65fdf3d7e00859d1bcd3c473896040518080602001828103825260368152602001806119a56036913960400191505060405180910390a16106fa6040518060600160405280603e8152602001611967603e913982610c13565b6007908051906020019061070f9291906118c1565b506107e960078054600181600116156101000203166002900480601f0160208091040260200160405190810160405280929190818152602001828054600181600116156101000203166002900480156107a95780601f1061077e576101008083540402835291602001916107a9565b820191906000526020600020905b81548152906001019060200180831161078c57829003601f168201915b50505050506040518060400160405280600f81526020017f292e70726f66696c652e70726963650000000000000000000000000000000000815250610c13565b600890805190602001906107fe9291906118c1565b506108d86040518060400160405280600381526020017f55524c000000000000000000000000000000000000000000000000000000000081525060088054600181600116156101000203166002900480601f0160208091040260200160405190810160405280929190818152602001828054600181600116156101000203166002900480156108ce5780601f106108a3576101008083540402835291602001916108ce565b820191906000526020600020905b8154815290600101906020018083116108b157829003601f168201915b5050505050610cdb565b5050565b60065481565b60008073ffffffffffffffffffffffffffffffffffffffff16600160009054906101000a900473ffffffffffffffffffffffffffffffffffffffff1673ffffffffffffffffffffffffffffffffffffffff16148061096a57506000610968600160009054906101000a900473ffffffffffffffffffffffffffffffffffffffff16611221565b145b1561097b57610979600061122c565b505b600160009054906101000a900473ffffffffffffffffffffffffffffffffffffffff1673ffffffffffffffffffffffffffffffffffffffff166338cc48316040518163ffffffff1660e01b8152600401602060405180830381600087803b1580156109e557600080fd5b505af11580156109f9573d6000803e3d6000fd5b505050506040513d6020811015610a0f57600080fd5b810190808051906020019092919050505073ffffffffffffffffffffffffffffffffffffffff166000809054906101000a900473ffffffffffffffffffffffffffffffffffffffff1673ffffffffffffffffffffffffffffffffffffffff1614610b5857600160009054906101000a900473ffffffffffffffffffffffffffffffffffffffff1673ffffffffffffffffffffffffffffffffffffffff166338cc48316040518163ffffffff1660e01b8152600401602060405180830381600087803b158015610add57600080fd5b505af1158015610af1573d6000803e3d6000fd5b505050506040513d6020811015610b0757600080fd5b81019080805190602001909291905050506000806101000a81548173ffffffffffffffffffffffffffffffffffffffff021916908373ffffffffffffffffffffffffffffffffffffffff1602179055505b6000809054906101000a900473ffffffffffffffffffffffffffffffffffffffff1673ffffffffffffffffffffffffffffffffffffffff1663c281d19e6040518163ffffffff1660e01b815260040160206040518083038186803b158015610bbf57600080fd5b505afa158015610bd3573d6000803e3d6000fd5b505050506040513d6020811015610be957600080fd5b8101908080519060200190929190505050905090565b6000610c0c82600061123d565b9050919050565b606082826040516020018083805190602001908083835b60208310610c4d5780518252602082019150602081019050602083039250610c2a565b6001836020036101000a03801982511681845116808217855250505050505090500182805190602001908083835b60208310610c9e5780518252602082019150602081019050602083039250610c7b565b6001836020036101000a03801982511681845116808217855250505050505090500192505050604051602081830303815290604052905092915050565b60008073ffffffffffffffffffffffffffffffffffffffff16600160009054906101000a900473ffffffffffffffffffffffffffffffffffffffff1673ffffffffffffffffffffffffffffffffffffffff161480610d6357506000610d61600160009054906101000a900473ffffffffffffffffffffffffffffffffffffffff16611221565b145b15610d7457610d72600061122c565b505b600160009054906101000a900473ffffffffffffffffffffffffffffffffffffffff1673ffffffffffffffffffffffffffffffffffffffff166338cc48316040518163ffffffff1660e01b8152600401602060405180830381600087803b158015610dde57600080fd5b505af1158015610df2573d6000803e3d6000fd5b505050506040513d6020811015610e0857600080fd5b810190808051906020019092919050505073ffffffffffffffffffffffffffffffffffffffff166000809054906101000a900473ffffffffffffffffffffffffffffffffffffffff1673ffffffffffffffffffffffffffffffffffffffff1614610f5157600160009054906101000a900473ffffffffffffffffffffffffffffffffffffffff1673ffffffffffffffffffffffffffffffffffffffff166338cc48316040518163ffffffff1660e01b8152600401602060405180830381600087803b158015610ed657600080fd5b505af1158015610eea573d6000803e3d6000fd5b505050506040513d6020811015610f0057600080fd5b81019080805190602001909291905050506000806101000a81548173ffffffffffffffffffffffffffffffffffffffff021916908373ffffffffffffffffffffffffffffffffffffffff1602179055505b60008060009054906101000a900473ffffffffffffffffffffffffffffffffffffffff1673ffffffffffffffffffffffffffffffffffffffff1663524f3889856040518263ffffffff1660e01b81526004018080602001828103825283818151815260200191508051906020019080838360005b83811015610fe0578082015181840152602081019050610fc5565b50505050905090810190601f16801561100d5780820380516001836020036101000a031916815260200191505b5092505050602060405180830381600087803b15801561102c57600080fd5b505af1158015611040573d6000803e3d6000fd5b505050506040513d602081101561105657600080fd5b8101908080519060200190929190505050905062030d403a02670de0b6b3a76400000181111561108c576000801b91505061121b565b6000809054906101000a900473ffffffffffffffffffffffffffffffffffffffff1673ffffffffffffffffffffffffffffffffffffffff1663adf59f9982600087876040518563ffffffff1660e01b8152600401808481526020018060200180602001838103835285818151815260200191508051906020019080838360005b8381101561112757808201518184015260208101905061110c565b50505050905090810190601f1680156111545780820380516001836020036101000a031916815260200191505b50838103825284818151815260200191508051906020019080838360005b8381101561118d578082015181840152602081019050611172565b50505050905090810190601f1680156111ba5780820380516001836020036101000a031916815260200191505b50955050505050506020604051808303818588803b1580156111db57600080fd5b505af11580156111ef573d6000803e3d6000fd5b50505050506040513d602081101561120657600080fd5b81019080805190602001909291905050509150505b92915050565b6000813b9050919050565b6000611236611350565b9050919050565b600060608390506000809050600080905060008090505b835181101561133157603084828151811061126b57fe5b602001015160f81c60f81b60f81c60ff16101580156112a75750603984828151811061129357fe5b602001015160f81c60f81b60f81c60ff1611155b156112f95781156112ca5760008614156112c057611331565b8580600190039650505b600a8302925060308482815181106112de57fe5b602001015160f81c60f81b60f81c60ff160383019250611324565b602e84828151811061130757fe5b602001015160f81c60f81b60f81c60ff16141561132357600191505b5b8080600101915050611254565b5060008511156113445784600a0a820291505b81935050505092915050565b600080611370731d3b2638a7cc9f2cb3d298a3da7a90b67e5506ed611221565b111561141257731d3b2638a7cc9f2cb3d298a3da7a90b67e5506ed600160006101000a81548173ffffffffffffffffffffffffffffffffffffffff021916908373ffffffffffffffffffffffffffffffffffffffff1602179055506114096040518060400160405280600b81526020017f6574685f6d61696e6e65740000000000000000000000000000000000000000008152506118a7565b600190506118a4565b600061143173c03a2615d5efaf5f49f60b7bb6583eaec212fdf1611221565b11156114d35773c03a2615d5efaf5f49f60b7bb6583eaec212fdf1600160006101000a81548173ffffffffffffffffffffffffffffffffffffffff021916908373ffffffffffffffffffffffffffffffffffffffff1602179055506114ca6040518060400160405280600c81526020017f6574685f726f707374656e3300000000000000000000000000000000000000008152506118a7565b600190506118a4565b60006114f273b7a07bcf2ba2f2703b24c0691b5278999c59ac7e611221565b11156115945773b7a07bcf2ba2f2703b24c0691b5278999c59ac7e600160006101000a81548173ffffffffffffffffffffffffffffffffffffffff021916908373ffffffffffffffffffffffffffffffffffffffff16021790555061158b6040518060400160405280600981526020017f6574685f6b6f76616e00000000000000000000000000000000000000000000008152506118a7565b600190506118a4565b60006115b373146500cfd35b22e4a392fe0adc06de1a1368ed48611221565b11156116555773146500cfd35b22e4a392fe0adc06de1a1368ed48600160006101000a81548173ffffffffffffffffffffffffffffffffffffffff021916908373ffffffffffffffffffffffffffffffffffffffff16021790555061164c6040518060400160405280600b81526020017f6574685f72696e6b6562790000000000000000000000000000000000000000008152506118a7565b600190506118a4565b600061167473a2998efd205fb9d4b4963afb70778d6354ad3a41611221565b11156117165773a2998efd205fb9d4b4963afb70778d6354ad3a41600160006101000a81548173ffffffffffffffffffffffffffffffffffffffff021916908373ffffffffffffffffffffffffffffffffffffffff16021790555061170d6040518060400160405280600a81526020017f6574685f676f65726c69000000000000000000000000000000000000000000008152506118a7565b600190506118a4565b6000611735736f485c8bf6fc43ea212e93bbf8ce046c7f1cb475611221565b111561179957736f485c8bf6fc43ea212e93bbf8ce046c7f1cb475600160006101000a81548173ffffffffffffffffffffffffffffffffffffffff021916908373ffffffffffffffffffffffffffffffffffffffff160217905550600190506118a4565b60006117b87320e12a1f859b3feae5fb2a0a32c18f5a65555bbf611221565b111561181c577320e12a1f859b3feae5fb2a0a32c18f5a65555bbf600160006101000a81548173ffffffffffffffffffffffffffffffffffffffff021916908373ffffffffffffffffffffffffffffffffffffffff160217905550600190506118a4565b600061183b7351efaf4c8b3c9afbd5ab9f4bbc82784ab6ef8faa611221565b111561189f577351efaf4c8b3c9afbd5ab9f4bbc82784ab6ef8faa600160006101000a81548173ffffffffffffffffffffffffffffffffffffffff021916908373ffffffffffffffffffffffffffffffffffffffff160217905550600190506118a4565b600090505b90565b80600290805190602001906118bd9291906118c1565b5050565b828054600181600116156101000203166002900490600052602060002090601f016020900481019282601f1061190257805160ff1916838001178555611930565b82800160010185558215611930579182015b8281111561192f578251825591602001919060010190611914565b5b50905061193d9190611941565b5090565b61196391905b8082111561195f576000816000905550600101611947565b5090565b9056fe6a736f6e2868747470733a2f2f66696e616e6369616c6d6f64656c696e67707265702e636f6d2f6170692f76332f636f6d70616e792f70726f66696c652f50726f7661626c65207175657279207761732073656e742c207374616e64696e6720627920666f722074686520616e737765722e2e2ea265627a7a723158207cba2063d61e1700282a4cd6a6cfc2afeab1760c84d82eebf9e0103794cce7f064736f6c634300051000326a736f6e2868747470733a2f2f66696e616e6369616c6d6f64656c696e67707265702e636f6d2f6170692f76332f636f6d70616e792f70726f66696c652f50726f7661626c65207175657279207761732073656e742c207374616e64696e6720627920666f722074686520616e737765722e2e2e",
  "source": "pragma solidity >= 0.5.0 < 0.6.0;\n\nimport \"./provableAPI.sol\";\n\ncontract StockPrice is usingProvable {\n    \n    string public stockResult;\n    uint public price;\n    string private api;\n    string private query;\n    \n    \n    event LogNewProvableQuery(string description);\n    event LogNewStock(string stock);\n    \n    constructor(string memory _symbol) public\n    {\n        update(_symbol); // First check at contract creation...\n    }\n    \n    function concatenate(string memory a, string memory b) private pure returns(string memory)\n    {\n        return string(abi.encodePacked(a,b));\n    }\n    \n    function __callback(bytes32 _myid, string memory _result) public\n    {\n        require(msg.sender == provable_cbAddress());\n        stockResult = _result;\n        price = parseInt(stockResult);\n        price = price * 1000000000;\n        emit LogNewStock(stockResult);\n        // Do something with the temperature measure...\n    }\n    \n    \n    function update(string memory _symbol) public payable\n    {\n        emit LogNewProvableQuery(\"Provable query was sent, standing by for the answer...\");\n        api = concatenate(\"json(https://financialmodelingprep.com/api/v3/company/profile/\", _symbol);\n        query = concatenate(api, \").profile.price\");\n        provable_query(\"URL\", query); \n    }\n    \n}",
  "sourcePath": "/s/chopin/b/grad/padalia/Subjects/Semester-2/CS-481/Final-Project/original/CS481-Term-Project/contracts/StockQuery.sol",
  "compiler": {
    "name": "solc",
    "version": "0.5.16+commit.9c3226ce.Emscripten.clang"
  },
  "schemaVersion": "3.1.0",
  "updatedAt": "2020-05-04T01:14:40.675Z",
  "devdoc": {
    "methods": {}
  },
  "userdoc": {
    "methods": {}
  }
}